{
  "_format": "hh-sol-artifact-1",
  "contractName": "CourseMarket",
  "sourceName": "contracts/CourseMarket.sol",
  "abi": [
    {
      "inputs": [
        {
          "internalType": "address",
          "name": "_tokenAddress",
          "type": "address"
        },
        {
          "internalType": "address",
          "name": "_certificateAddress",
          "type": "address"
        }
      ],
      "stateMutability": "nonpayable",
      "type": "constructor"
    },
    {
      "anonymous": false,
      "inputs": [
        {
          "indexed": true,
          "internalType": "uint256",
          "name": "courseId",
          "type": "uint256"
        },
        {
          "indexed": false,
          "internalType": "string",
          "name": "web2CourseId",
          "type": "string"
        },
        {
          "indexed": false,
          "internalType": "string",
          "name": "name",
          "type": "string"
        }
      ],
      "name": "CourseAdded",
      "type": "event"
    },
    {
      "anonymous": false,
      "inputs": [
        {
          "indexed": true,
          "internalType": "address",
          "name": "student",
          "type": "address"
        },
        {
          "indexed": true,
          "internalType": "uint256",
          "name": "courseId",
          "type": "uint256"
        },
        {
          "indexed": false,
          "internalType": "uint256",
          "name": "certificateId",
          "type": "uint256"
        }
      ],
      "name": "CourseCompleted",
      "type": "event"
    },
    {
      "anonymous": false,
      "inputs": [
        {
          "indexed": true,
          "internalType": "address",
          "name": "buyer",
          "type": "address"
        },
        {
          "indexed": true,
          "internalType": "uint256",
          "name": "courseId",
          "type": "uint256"
        },
        {
          "indexed": false,
          "internalType": "string",
          "name": "web2CourseId",
          "type": "string"
        }
      ],
      "name": "CoursePurchased",
      "type": "event"
    },
    {
      "anonymous": false,
      "inputs": [
        {
          "indexed": true,
          "internalType": "uint256",
          "name": "courseId",
          "type": "uint256"
        },
        {
          "indexed": false,
          "internalType": "string",
          "name": "oldWeb2CourseId",
          "type": "string"
        },
        {
          "indexed": false,
          "internalType": "string",
          "name": "newWeb2CourseId",
          "type": "string"
        },
        {
          "indexed": false,
          "internalType": "string",
          "name": "name",
          "type": "string"
        },
        {
          "indexed": false,
          "internalType": "uint256",
          "name": "price",
          "type": "uint256"
        },
        {
          "indexed": false,
          "internalType": "bool",
          "name": "isActive",
          "type": "bool"
        }
      ],
      "name": "CourseUpdated",
      "type": "event"
    },
    {
      "anonymous": false,
      "inputs": [
        {
          "indexed": true,
          "internalType": "address",
          "name": "previousOwner",
          "type": "address"
        },
        {
          "indexed": true,
          "internalType": "address",
          "name": "newOwner",
          "type": "address"
        }
      ],
      "name": "OwnershipTransferred",
      "type": "event"
    },
    {
      "inputs": [
        {
          "internalType": "string",
          "name": "web2CourseId",
          "type": "string"
        },
        {
          "internalType": "string",
          "name": "name",
          "type": "string"
        },
        {
          "internalType": "uint256",
          "name": "price",
          "type": "uint256"
        }
      ],
      "name": "addCourse",
      "outputs": [],
      "stateMutability": "nonpayable",
      "type": "function"
    },
    {
      "inputs": [
        {
          "internalType": "address[]",
          "name": "students",
          "type": "address[]"
        },
        {
          "internalType": "string",
          "name": "web2CourseId",
          "type": "string"
        }
      ],
      "name": "batchVerifyCourseCompletion",
      "outputs": [],
      "stateMutability": "nonpayable",
      "type": "function"
    },
    {
      "inputs": [],
      "name": "certificate",
      "outputs": [
        {
          "internalType": "contract CourseCertificate",
          "name": "",
          "type": "address"
        }
      ],
      "stateMutability": "view",
      "type": "function"
    },
    {
      "inputs": [],
      "name": "courseCount",
      "outputs": [
        {
          "internalType": "uint256",
          "name": "",
          "type": "uint256"
        }
      ],
      "stateMutability": "view",
      "type": "function"
    },
    {
      "inputs": [
        {
          "internalType": "uint256",
          "name": "",
          "type": "uint256"
        }
      ],
      "name": "courses",
      "outputs": [
        {
          "internalType": "string",
          "name": "web2CourseId",
          "type": "string"
        },
        {
          "internalType": "string",
          "name": "name",
          "type": "string"
        },
        {
          "internalType": "uint256",
          "name": "price",
          "type": "uint256"
        },
        {
          "internalType": "bool",
          "name": "isActive",
          "type": "bool"
        },
        {
          "internalType": "address",
          "name": "creator",
          "type": "address"
        }
      ],
      "stateMutability": "view",
      "type": "function"
    },
    {
      "inputs": [],
      "name": "geekToken",
      "outputs": [
        {
          "internalType": "contract GeekToken",
          "name": "",
          "type": "address"
        }
      ],
      "stateMutability": "view",
      "type": "function"
    },
    {
      "inputs": [
        {
          "internalType": "address",
          "name": "user",
          "type": "address"
        },
        {
          "internalType": "string",
          "name": "web2CourseId",
          "type": "string"
        }
      ],
      "name": "hasCourse",
      "outputs": [
        {
          "internalType": "bool",
          "name": "",
          "type": "bool"
        }
      ],
      "stateMutability": "view",
      "type": "function"
    },
    {
      "inputs": [],
      "name": "owner",
      "outputs": [
        {
          "internalType": "address",
          "name": "",
          "type": "address"
        }
      ],
      "stateMutability": "view",
      "type": "function"
    },
    {
      "inputs": [
        {
          "internalType": "string",
          "name": "web2CourseId",
          "type": "string"
        }
      ],
      "name": "purchaseCourse",
      "outputs": [],
      "stateMutability": "nonpayable",
      "type": "function"
    },
    {
      "inputs": [],
      "name": "renounceOwnership",
      "outputs": [],
      "stateMutability": "nonpayable",
      "type": "function"
    },
    {
      "inputs": [
        {
          "internalType": "address",
          "name": "newOwner",
          "type": "address"
        }
      ],
      "name": "transferOwnership",
      "outputs": [],
      "stateMutability": "nonpayable",
      "type": "function"
    },
    {
      "inputs": [
        {
          "internalType": "string",
          "name": "oldWeb2CourseId",
          "type": "string"
        },
        {
          "internalType": "string",
          "name": "newWeb2CourseId",
          "type": "string"
        },
        {
          "internalType": "string",
          "name": "name",
          "type": "string"
        },
        {
          "internalType": "uint256",
          "name": "price",
          "type": "uint256"
        },
        {
          "internalType": "bool",
          "name": "isActive",
          "type": "bool"
        }
      ],
      "name": "updateCourse",
      "outputs": [],
      "stateMutability": "nonpayable",
      "type": "function"
    },
    {
      "inputs": [
        {
          "internalType": "address",
          "name": "",
          "type": "address"
        },
        {
          "internalType": "uint256",
          "name": "",
          "type": "uint256"
        }
      ],
      "name": "userCourses",
      "outputs": [
        {
          "internalType": "bool",
          "name": "",
          "type": "bool"
        }
      ],
      "stateMutability": "view",
      "type": "function"
    },
    {
      "inputs": [
        {
          "internalType": "address",
          "name": "student",
          "type": "address"
        },
        {
          "internalType": "string",
          "name": "web2CourseId",
          "type": "string"
        }
      ],
      "name": "verifyCourseCompletion",
      "outputs": [],
      "stateMutability": "nonpayable",
      "type": "function"
    },
    {
      "inputs": [
        {
          "internalType": "string",
          "name": "",
          "type": "string"
        }
      ],
      "name": "web2ToCourseId",
      "outputs": [
        {
          "internalType": "uint256",
          "name": "",
          "type": "uint256"
        }
      ],
      "stateMutability": "view",
      "type": "function"
    }
  ],
  "bytecode": "0x60806040523480156200001157600080fd5b5060405162001c5838038062001c588339810160408190526200003491620000de565b6200003f3362000071565b600180546001600160a01b039384166001600160a01b0319918216179091556002805492909316911617905562000116565b600080546001600160a01b038381166001600160a01b0319831681178455604051919092169283917f8be0079c531659141344cd1fd0a4f28419497f9722a3daafe3b4186f6b6457e09190a35050565b80516001600160a01b0381168114620000d957600080fd5b919050565b60008060408385031215620000f257600080fd5b620000fd83620000c1565b91506200010d60208401620000c1565b90509250929050565b611b3280620001266000396000f3fe608060405234801561001057600080fd5b50600436106100f55760003560e01c806396f979d211610097578063c48cb02011610066578063c48cb02014610235578063dd403ce114610248578063f24fa63a1461025b578063f2fde38b1461026e57600080fd5b806396f979d2146101c05780639af04ffd146101e45780639b84006e146101f7578063b62644cd1461022257600080fd5b806367589b6f116100d357806367589b6f14610156578063715018a6146101695780638da5cb5b1461017157806393a05c201461018257600080fd5b80632dbf7b98146100fa57806344a8ef191461012a578063660551591461013f575b600080fd5b60025461010d906001600160a01b031681565b6040516001600160a01b0390911681526020015b60405180910390f35b61013d6101383660046113be565b610281565b005b61014860065481565b604051908152602001610121565b61013d61016436600461142b565b61046f565b61013d6107ea565b6000546001600160a01b031661010d565b6101b0610190366004611484565b600560209081526000928352604080842090915290825290205460ff1681565b6040519015158152602001610121565b6101d36101ce3660046114ae565b6107fe565b604051610121959493929190611517565b61013d6101f2366004611571565b610949565b61014861020536600461142b565b805160208183018101805160048252928201919093012091525481565b61013d610230366004611618565b610b88565b60015461010d906001600160a01b031681565b6101b06102563660046116e7565b610d3e565b61013d6102693660046116e7565b610db1565b61013d61027c36600461172b565b610ffc565b610289611075565b60008351116102df5760405162461bcd60e51b815260206004820152601e60248201527f5765623220636f757273652049442063616e6e6f7420626520656d707479000060448201526064015b60405180910390fd5b6004836040516102ef9190611746565b9081526020016040518091039020546000146103455760405162461bcd60e51b8152602060048201526015602482015274436f7572736520616c72656164792065786973747360581b60448201526064016102d6565b6006805490600061035583611778565b90915550506040805160a0810182528481526020808201859052818301849052600160608301523360808301526006546000908152600390915291909120815181906103a19082611819565b50602082015160018201906103b69082611819565b5060408281015160028301556060830151600390920180546080909401516001600160a01b031661010002610100600160a81b0319931515939093166001600160a81b03199094169390931791909117909155600654905160049061041c908690611746565b9081526020016040518091039020819055506006547f60dc19c8b14fd3a7f20dd113bdacc08bd8cdbfc6d28dcf1169272fc32eaef6c384846040516104629291906118d9565b60405180910390a2505050565b60006004826040516104819190611746565b9081526020016040518091039020549050600081116104b25760405162461bcd60e51b81526004016102d690611907565b600081815260036020526040808220815160a081019092528054829082906104d990611791565b80601f016020809104026020016040519081016040528092919081815260200182805461050590611791565b80156105525780601f1061052757610100808354040283529160200191610552565b820191906000526020600020905b81548152906001019060200180831161053557829003601f168201915b5050505050815260200160018201805461056b90611791565b80601f016020809104026020016040519081016040528092919081815260200182805461059790611791565b80156105e45780601f106105b9576101008083540402835291602001916105e4565b820191906000526020600020905b8154815290600101906020018083116105c757829003601f168201915b50505091835250506002820154602082015260039091015460ff81161515604083015261010090046001600160a01b03166060918201528101519091506106615760405162461bcd60e51b8152602060048201526011602482015270436f75727365206e6f742061637469766560781b60448201526064016102d6565b33600090815260056020908152604080832085845290915290205460ff16156106c05760405162461bcd60e51b8152602060048201526011602482015270105b1c9958591e481c1d5c98da185cd959607a1b60448201526064016102d6565b600154608082015160408084015190516323b872dd60e01b81523360048201526001600160a01b03928316602482015260448101919091529116906323b872dd906064016020604051808303816000875af1158015610723573d6000803e3d6000fd5b505050506040513d601f19601f820116820180604052508101906107479190611936565b6107855760405162461bcd60e51b815260206004820152600f60248201526e151c985b9cd9995c8819985a5b1959608a1b60448201526064016102d6565b33600081815260056020908152604080832086845290915290819020805460ff19166001179055518391907f1a04f8d389f43beccf2cc32092c53cb34d57ec70fd68693db2bfe79336db783c906107dd908790611953565b60405180910390a3505050565b6107f2611075565b6107fc60006110cf565b565b60036020526000908152604090208054819061081990611791565b80601f016020809104026020016040519081016040528092919081815260200182805461084590611791565b80156108925780601f1061086757610100808354040283529160200191610892565b820191906000526020600020905b81548152906001019060200180831161087557829003601f168201915b5050505050908060010180546108a790611791565b80601f01602080910402602001604051908101604052809291908181526020018280546108d390611791565b80156109205780601f106108f557610100808354040283529160200191610920565b820191906000526020600020905b81548152906001019060200180831161090357829003601f168201915b50505050600283015460039093015491929160ff8116915061010090046001600160a01b031685565b610951611075565b60008551116109ad5760405162461bcd60e51b815260206004820152602260248201527f4f6c64205765623220636f757273652049442063616e6e6f7420626520656d70604482015261747960f01b60648201526084016102d6565b6000845111610a095760405162461bcd60e51b815260206004820152602260248201527f4e6577205765623220636f757273652049442063616e6e6f7420626520656d70604482015261747960f01b60648201526084016102d6565b6000600486604051610a1b9190611746565b908152602001604051809103902054905060008111610a4c5760405162461bcd60e51b81526004016102d690611907565b6040805160a08101825286815260208082018790528183018690528415156060830152336080830152600084815260039091529190912081518190610a919082611819565b5060208201516001820190610aa69082611819565b5060408281015160028301556060830151600390920180546080909401516001600160a01b031661010002610100600160a81b0319931515939093166001600160a81b0319909416939093179190911790915551600090600490610b0b908990611746565b90815260200160405180910390208190555080600486604051610b2e9190611746565b908152602001604051809103902081905550807f3b4ec8e03abe7da9aa1a2b703570e624507cc250aaf27a1b7263e0c67b960a8f8787878787604051610b78959493929190611966565b60405180910390a2505050505050565b610b90611075565b60005b8251811015610d395760056000848381518110610bb257610bb26119b9565b60200260200101516001600160a01b03166001600160a01b031681526020019081526020016000206000600484604051610bec9190611746565b908152604080516020928190038301902054835290820192909252016000205460ff168015610ca8575060025483516001600160a01b0390911690633c433ebe90859084908110610c3f57610c3f6119b9565b6020026020010151846040518363ffffffff1660e01b8152600401610c659291906119cf565b602060405180830381865afa158015610c82573d6000803e3d6000fd5b505050506040513d601f19601f82011682018060405250810190610ca69190611936565b155b15610d2757306001600160a01b031663f24fa63a848381518110610cce57610cce6119b9565b6020026020010151846040518363ffffffff1660e01b8152600401610cf49291906119cf565b600060405180830381600087803b158015610d0e57600080fd5b505af1158015610d22573d6000803e3d6000fd5b505050505b80610d3181611778565b915050610b93565b505050565b600080600483604051610d519190611746565b908152602001604051809103902054905060008111610d825760405162461bcd60e51b81526004016102d690611907565b6001600160a01b0384166000908152600560209081526040808320938352929052205460ff1690505b92915050565b610db9611075565b6000600482604051610dcb9190611746565b908152602001604051809103902054905060008111610dfc5760405162461bcd60e51b81526004016102d690611907565b6001600160a01b038316600090815260056020908152604080832084845290915290205460ff16610e665760405162461bcd60e51b815260206004820152601460248201527310dbdd5c9cd9481b9bdd081c1d5c98da185cd95960621b60448201526064016102d6565b600254604051631e219f5f60e11b81526001600160a01b0390911690633c433ebe90610e9890869086906004016119cf565b602060405180830381865afa158015610eb5573d6000803e3d6000fd5b505050506040513d601f19601f82011682018060405250810190610ed99190611936565b15610f265760405162461bcd60e51b815260206004820152601a60248201527f436572746966696361746520616c72656164792069737375656400000000000060448201526064016102d6565b6000610f32848461111f565b600254604051636b55243d60e01b81529192506000916001600160a01b0390911690636b55243d90610f6c908890889087906004016119f3565b6020604051808303816000875af1158015610f8b573d6000803e3d6000fd5b505050506040513d601f19601f82011682018060405250810190610faf9190611a33565b905082856001600160a01b03167f69598479254610bc37273ec300171cd231505beb1ee68d360cbd78c1bd81827883604051610fed91815260200190565b60405180910390a35050505050565b611004611075565b6001600160a01b0381166110695760405162461bcd60e51b815260206004820152602660248201527f4f776e61626c653a206e6577206f776e657220697320746865207a65726f206160448201526564647265737360d01b60648201526084016102d6565b611072816110cf565b50565b6000546001600160a01b031633146107fc5760405162461bcd60e51b815260206004820181905260248201527f4f776e61626c653a2063616c6c6572206973206e6f7420746865206f776e657260448201526064016102d6565b600080546001600160a01b038381166001600160a01b0319831681178455604051919092169283917f8be0079c531659141344cd1fd0a4f28419497f9722a3daafe3b4186f6b6457e09190a35050565b60608161112b84611153565b60405160200161113c929190611a4c565b604051602081830303815290604052905092915050565b6060610dab6001600160a01b038316601460606000611173836002611abb565b61117e906002611ad2565b67ffffffffffffffff81111561119657611196611307565b6040519080825280601f01601f1916602001820160405280156111c0576020820181803683370190505b509050600360fc1b816000815181106111db576111db6119b9565b60200101906001600160f81b031916908160001a905350600f60fb1b8160018151811061120a5761120a6119b9565b60200101906001600160f81b031916908160001a905350600061122e846002611abb565b611239906001611ad2565b90505b60018111156112b1576f181899199a1a9b1b9c1cb0b131b232b360811b85600f166010811061126d5761126d6119b9565b1a60f81b828281518110611283576112836119b9565b60200101906001600160f81b031916908160001a90535060049490941c936112aa81611ae5565b905061123c565b5083156113005760405162461bcd60e51b815260206004820181905260248201527f537472696e67733a20686578206c656e67746820696e73756666696369656e7460448201526064016102d6565b9392505050565b634e487b7160e01b600052604160045260246000fd5b604051601f8201601f1916810167ffffffffffffffff8111828210171561134657611346611307565b604052919050565b600082601f83011261135f57600080fd5b813567ffffffffffffffff81111561137957611379611307565b61138c601f8201601f191660200161131d565b8181528460208386010111156113a157600080fd5b816020850160208301376000918101602001919091529392505050565b6000806000606084860312156113d357600080fd5b833567ffffffffffffffff808211156113eb57600080fd5b6113f78783880161134e565b9450602086013591508082111561140d57600080fd5b5061141a8682870161134e565b925050604084013590509250925092565b60006020828403121561143d57600080fd5b813567ffffffffffffffff81111561145457600080fd5b6114608482850161134e565b949350505050565b80356001600160a01b038116811461147f57600080fd5b919050565b6000806040838503121561149757600080fd5b6114a083611468565b946020939093013593505050565b6000602082840312156114c057600080fd5b5035919050565b60005b838110156114e25781810151838201526020016114ca565b50506000910152565b600081518084526115038160208601602086016114c7565b601f01601f19169290920160200192915050565b60a08152600061152a60a08301886114eb565b828103602084015261153c81886114eb565b6040840196909652505091151560608301526001600160a01b031660809091015292915050565b801515811461107257600080fd5b600080600080600060a0868803121561158957600080fd5b853567ffffffffffffffff808211156115a157600080fd5b6115ad89838a0161134e565b965060208801359150808211156115c357600080fd5b6115cf89838a0161134e565b955060408801359150808211156115e557600080fd5b506115f28882890161134e565b93505060608601359150608086013561160a81611563565b809150509295509295909350565b6000806040838503121561162b57600080fd5b823567ffffffffffffffff8082111561164357600080fd5b818501915085601f83011261165757600080fd5b813560208282111561166b5761166b611307565b8160051b61167a82820161131d565b928352848101820192828101908a85111561169457600080fd5b958301955b848710156116b9576116aa87611468565b82529583019590830190611699565b97505050860135925050808211156116d057600080fd5b506116dd8582860161134e565b9150509250929050565b600080604083850312156116fa57600080fd5b61170383611468565b9150602083013567ffffffffffffffff81111561171f57600080fd5b6116dd8582860161134e565b60006020828403121561173d57600080fd5b61130082611468565b600082516117588184602087016114c7565b9190910192915050565b634e487b7160e01b600052601160045260246000fd5b60006001820161178a5761178a611762565b5060010190565b600181811c908216806117a557607f821691505b6020821081036117c557634e487b7160e01b600052602260045260246000fd5b50919050565b601f821115610d3957600081815260208120601f850160051c810160208610156117f25750805b601f850160051c820191505b81811015611811578281556001016117fe565b505050505050565b815167ffffffffffffffff81111561183357611833611307565b611847816118418454611791565b846117cb565b602080601f83116001811461187c57600084156118645750858301515b600019600386901b1c1916600185901b178555611811565b600085815260208120601f198616915b828110156118ab5788860151825594840194600190910190840161188c565b50858210156118c95787850151600019600388901b60f8161c191681555b5050505050600190811b01905550565b6040815260006118ec60408301856114eb565b82810360208401526118fe81856114eb565b95945050505050565b60208082526015908201527410dbdd5c9cd948191bd95cc81b9bdd08195e1a5cdd605a1b604082015260600190565b60006020828403121561194857600080fd5b815161130081611563565b60208152600061130060208301846114eb565b60a08152600061197960a08301886114eb565b828103602084015261198b81886114eb565b9050828103604084015261199f81876114eb565b606084019590955250509015156080909101529392505050565b634e487b7160e01b600052603260045260246000fd5b6001600160a01b0383168152604060208201819052600090611460908301846114eb565b6001600160a01b0384168152606060208201819052600090611a17908301856114eb565b8281036040840152611a2981856114eb565b9695505050505050565b600060208284031215611a4557600080fd5b5051919050565b7f68747470733a2f2f6170692e6765656b2e636f6d2f636572746966696361746581526000602f60f81b8060208401528451611a8f8160218601602089016114c7565b808401905081602182015284519150611aaf8260228301602088016114c7565b01602201949350505050565b8082028115828204841417610dab57610dab611762565b80820180821115610dab57610dab611762565b600081611af457611af4611762565b50600019019056fea2646970667358221220edd61c7ba383a0b9e607e88b1c609a3be9ff1accd1cb99a0c25a530fea15e2da64736f6c63430008140033",
  "linkReferences": {},
  "deployedLinkReferences": {}
}