{
  "_format": "hh-sol-artifact-1",
  "contractName": "CourseCertificate",
  "sourceName": "contracts/CourseCertificate.sol",
  "abi": [
    {
      "inputs": [],
      "stateMutability": "nonpayable",
      "type": "constructor"
    },
    {
      "anonymous": false,
      "inputs": [
        {
          "indexed": true,
          "internalType": "address",
          "name": "owner",
          "type": "address"
        },
        {
          "indexed": true,
          "internalType": "address",
          "name": "approved",
          "type": "address"
        },
        {
          "indexed": true,
          "internalType": "uint256",
          "name": "tokenId",
          "type": "uint256"
        }
      ],
      "name": "Approval",
      "type": "event"
    },
    {
      "anonymous": false,
      "inputs": [
        {
          "indexed": true,
          "internalType": "address",
          "name": "owner",
          "type": "address"
        },
        {
          "indexed": true,
          "internalType": "address",
          "name": "operator",
          "type": "address"
        },
        {
          "indexed": false,
          "internalType": "bool",
          "name": "approved",
          "type": "bool"
        }
      ],
      "name": "ApprovalForAll",
      "type": "event"
    },
    {
      "anonymous": false,
      "inputs": [
        {
          "indexed": true,
          "internalType": "uint256",
          "name": "tokenId",
          "type": "uint256"
        },
        {
          "indexed": false,
          "internalType": "string",
          "name": "web2CourseId",
          "type": "string"
        },
        {
          "indexed": true,
          "internalType": "address",
          "name": "student",
          "type": "address"
        }
      ],
      "name": "CertificateMinted",
      "type": "event"
    },
    {
      "anonymous": false,
      "inputs": [
        {
          "indexed": true,
          "internalType": "bytes32",
          "name": "role",
          "type": "bytes32"
        },
        {
          "indexed": true,
          "internalType": "bytes32",
          "name": "previousAdminRole",
          "type": "bytes32"
        },
        {
          "indexed": true,
          "internalType": "bytes32",
          "name": "newAdminRole",
          "type": "bytes32"
        }
      ],
      "name": "RoleAdminChanged",
      "type": "event"
    },
    {
      "anonymous": false,
      "inputs": [
        {
          "indexed": true,
          "internalType": "bytes32",
          "name": "role",
          "type": "bytes32"
        },
        {
          "indexed": true,
          "internalType": "address",
          "name": "account",
          "type": "address"
        },
        {
          "indexed": true,
          "internalType": "address",
          "name": "sender",
          "type": "address"
        }
      ],
      "name": "RoleGranted",
      "type": "event"
    },
    {
      "anonymous": false,
      "inputs": [
        {
          "indexed": true,
          "internalType": "bytes32",
          "name": "role",
          "type": "bytes32"
        },
        {
          "indexed": true,
          "internalType": "address",
          "name": "account",
          "type": "address"
        },
        {
          "indexed": true,
          "internalType": "address",
          "name": "sender",
          "type": "address"
        }
      ],
      "name": "RoleRevoked",
      "type": "event"
    },
    {
      "anonymous": false,
      "inputs": [
        {
          "indexed": true,
          "internalType": "address",
          "name": "from",
          "type": "address"
        },
        {
          "indexed": true,
          "internalType": "address",
          "name": "to",
          "type": "address"
        },
        {
          "indexed": true,
          "internalType": "uint256",
          "name": "tokenId",
          "type": "uint256"
        }
      ],
      "name": "Transfer",
      "type": "event"
    },
    {
      "inputs": [],
      "name": "DEFAULT_ADMIN_ROLE",
      "outputs": [
        {
          "internalType": "bytes32",
          "name": "",
          "type": "bytes32"
        }
      ],
      "stateMutability": "view",
      "type": "function"
    },
    {
      "inputs": [],
      "name": "MINTER_ROLE",
      "outputs": [
        {
          "internalType": "bytes32",
          "name": "",
          "type": "bytes32"
        }
      ],
      "stateMutability": "view",
      "type": "function"
    },
    {
      "inputs": [
        {
          "internalType": "address",
          "name": "to",
          "type": "address"
        },
        {
          "internalType": "uint256",
          "name": "tokenId",
          "type": "uint256"
        }
      ],
      "name": "approve",
      "outputs": [],
      "stateMutability": "nonpayable",
      "type": "function"
    },
    {
      "inputs": [
        {
          "internalType": "address",
          "name": "owner",
          "type": "address"
        }
      ],
      "name": "balanceOf",
      "outputs": [
        {
          "internalType": "uint256",
          "name": "",
          "type": "uint256"
        }
      ],
      "stateMutability": "view",
      "type": "function"
    },
    {
      "inputs": [
        {
          "internalType": "uint256",
          "name": "",
          "type": "uint256"
        }
      ],
      "name": "certificates",
      "outputs": [
        {
          "internalType": "string",
          "name": "web2CourseId",
          "type": "string"
        },
        {
          "internalType": "address",
          "name": "student",
          "type": "address"
        },
        {
          "internalType": "uint256",
          "name": "timestamp",
          "type": "uint256"
        },
        {
          "internalType": "string",
          "name": "metadataURI",
          "type": "string"
        }
      ],
      "stateMutability": "view",
      "type": "function"
    },
    {
      "inputs": [
        {
          "internalType": "uint256",
          "name": "tokenId",
          "type": "uint256"
        }
      ],
      "name": "getApproved",
      "outputs": [
        {
          "internalType": "address",
          "name": "",
          "type": "address"
        }
      ],
      "stateMutability": "view",
      "type": "function"
    },
    {
      "inputs": [
        {
          "internalType": "bytes32",
          "name": "role",
          "type": "bytes32"
        }
      ],
      "name": "getRoleAdmin",
      "outputs": [
        {
          "internalType": "bytes32",
          "name": "",
          "type": "bytes32"
        }
      ],
      "stateMutability": "view",
      "type": "function"
    },
    {
      "inputs": [
        {
          "internalType": "address",
          "name": "student",
          "type": "address"
        },
        {
          "internalType": "string",
          "name": "web2CourseId",
          "type": "string"
        }
      ],
      "name": "getStudentCertificates",
      "outputs": [
        {
          "internalType": "uint256[]",
          "name": "",
          "type": "uint256[]"
        }
      ],
      "stateMutability": "view",
      "type": "function"
    },
    {
      "inputs": [
        {
          "internalType": "bytes32",
          "name": "role",
          "type": "bytes32"
        },
        {
          "internalType": "address",
          "name": "account",
          "type": "address"
        }
      ],
      "name": "grantRole",
      "outputs": [],
      "stateMutability": "nonpayable",
      "type": "function"
    },
    {
      "inputs": [
        {
          "internalType": "address",
          "name": "student",
          "type": "address"
        },
        {
          "internalType": "string",
          "name": "web2CourseId",
          "type": "string"
        }
      ],
      "name": "hasCertificate",
      "outputs": [
        {
          "internalType": "bool",
          "name": "",
          "type": "bool"
        }
      ],
      "stateMutability": "view",
      "type": "function"
    },
    {
      "inputs": [
        {
          "internalType": "bytes32",
          "name": "role",
          "type": "bytes32"
        },
        {
          "internalType": "address",
          "name": "account",
          "type": "address"
        }
      ],
      "name": "hasRole",
      "outputs": [
        {
          "internalType": "bool",
          "name": "",
          "type": "bool"
        }
      ],
      "stateMutability": "view",
      "type": "function"
    },
    {
      "inputs": [
        {
          "internalType": "address",
          "name": "owner",
          "type": "address"
        },
        {
          "internalType": "address",
          "name": "operator",
          "type": "address"
        }
      ],
      "name": "isApprovedForAll",
      "outputs": [
        {
          "internalType": "bool",
          "name": "",
          "type": "bool"
        }
      ],
      "stateMutability": "view",
      "type": "function"
    },
    {
      "inputs": [
        {
          "internalType": "address",
          "name": "student",
          "type": "address"
        },
        {
          "internalType": "string",
          "name": "web2CourseId",
          "type": "string"
        },
        {
          "internalType": "string",
          "name": "metadataURI",
          "type": "string"
        }
      ],
      "name": "mintCertificate",
      "outputs": [
        {
          "internalType": "uint256",
          "name": "",
          "type": "uint256"
        }
      ],
      "stateMutability": "nonpayable",
      "type": "function"
    },
    {
      "inputs": [],
      "name": "name",
      "outputs": [
        {
          "internalType": "string",
          "name": "",
          "type": "string"
        }
      ],
      "stateMutability": "view",
      "type": "function"
    },
    {
      "inputs": [
        {
          "internalType": "uint256",
          "name": "tokenId",
          "type": "uint256"
        }
      ],
      "name": "ownerOf",
      "outputs": [
        {
          "internalType": "address",
          "name": "",
          "type": "address"
        }
      ],
      "stateMutability": "view",
      "type": "function"
    },
    {
      "inputs": [
        {
          "internalType": "bytes32",
          "name": "role",
          "type": "bytes32"
        },
        {
          "internalType": "address",
          "name": "account",
          "type": "address"
        }
      ],
      "name": "renounceRole",
      "outputs": [],
      "stateMutability": "nonpayable",
      "type": "function"
    },
    {
      "inputs": [
        {
          "internalType": "bytes32",
          "name": "role",
          "type": "bytes32"
        },
        {
          "internalType": "address",
          "name": "account",
          "type": "address"
        }
      ],
      "name": "revokeRole",
      "outputs": [],
      "stateMutability": "nonpayable",
      "type": "function"
    },
    {
      "inputs": [
        {
          "internalType": "address",
          "name": "from",
          "type": "address"
        },
        {
          "internalType": "address",
          "name": "to",
          "type": "address"
        },
        {
          "internalType": "uint256",
          "name": "tokenId",
          "type": "uint256"
        }
      ],
      "name": "safeTransferFrom",
      "outputs": [],
      "stateMutability": "nonpayable",
      "type": "function"
    },
    {
      "inputs": [
        {
          "internalType": "address",
          "name": "from",
          "type": "address"
        },
        {
          "internalType": "address",
          "name": "to",
          "type": "address"
        },
        {
          "internalType": "uint256",
          "name": "tokenId",
          "type": "uint256"
        },
        {
          "internalType": "bytes",
          "name": "data",
          "type": "bytes"
        }
      ],
      "name": "safeTransferFrom",
      "outputs": [],
      "stateMutability": "nonpayable",
      "type": "function"
    },
    {
      "inputs": [
        {
          "internalType": "address",
          "name": "operator",
          "type": "address"
        },
        {
          "internalType": "bool",
          "name": "approved",
          "type": "bool"
        }
      ],
      "name": "setApprovalForAll",
      "outputs": [],
      "stateMutability": "nonpayable",
      "type": "function"
    },
    {
      "inputs": [
        {
          "internalType": "string",
          "name": "",
          "type": "string"
        },
        {
          "internalType": "address",
          "name": "",
          "type": "address"
        },
        {
          "internalType": "uint256",
          "name": "",
          "type": "uint256"
        }
      ],
      "name": "studentCertificates",
      "outputs": [
        {
          "internalType": "uint256",
          "name": "",
          "type": "uint256"
        }
      ],
      "stateMutability": "view",
      "type": "function"
    },
    {
      "inputs": [
        {
          "internalType": "bytes4",
          "name": "interfaceId",
          "type": "bytes4"
        }
      ],
      "name": "supportsInterface",
      "outputs": [
        {
          "internalType": "bool",
          "name": "",
          "type": "bool"
        }
      ],
      "stateMutability": "view",
      "type": "function"
    },
    {
      "inputs": [],
      "name": "symbol",
      "outputs": [
        {
          "internalType": "string",
          "name": "",
          "type": "string"
        }
      ],
      "stateMutability": "view",
      "type": "function"
    },
    {
      "inputs": [
        {
          "internalType": "uint256",
          "name": "tokenId",
          "type": "uint256"
        }
      ],
      "name": "tokenURI",
      "outputs": [
        {
          "internalType": "string",
          "name": "",
          "type": "string"
        }
      ],
      "stateMutability": "view",
      "type": "function"
    },
    {
      "inputs": [
        {
          "internalType": "address",
          "name": "from",
          "type": "address"
        },
        {
          "internalType": "address",
          "name": "to",
          "type": "address"
        },
        {
          "internalType": "uint256",
          "name": "tokenId",
          "type": "uint256"
        }
      ],
      "name": "transferFrom",
      "outputs": [],
      "stateMutability": "nonpayable",
      "type": "function"
    }
  ],
  "bytecode": "0x60806040523480156200001157600080fd5b506040518060400160405280601781526020017f4765656b20436f7572736520436572746966696361746500000000000000000081525060405180604001604052806004815260200163474b434360e01b815250816000908162000076919062000213565b50600162000085828262000213565b506200009791506000905033620000c9565b620000c37f9f2df0fed2c77648de5860a4cc508cd0818c85b8b8a1ab4ceeef8d981c8956a633620000c9565b620002df565b60008281526006602090815260408083206001600160a01b038516845290915290205460ff166200016a5760008281526006602090815260408083206001600160a01b03851684529091529020805460ff19166001179055620001293390565b6001600160a01b0316816001600160a01b0316837f2f8788117e7eff1d82e926ec794901d17c78024a50270940304540a733656f0d60405160405180910390a45b5050565b634e487b7160e01b600052604160045260246000fd5b600181811c908216806200019957607f821691505b602082108103620001ba57634e487b7160e01b600052602260045260246000fd5b50919050565b601f8211156200020e57600081815260208120601f850160051c81016020861015620001e95750805b601f850160051c820191505b818110156200020a57828155600101620001f5565b5050505b505050565b81516001600160401b038111156200022f576200022f6200016e565b620002478162000240845462000184565b84620001c0565b602080601f8311600181146200027f5760008415620002665750858301515b600019600386901b1c1916600185901b1785556200020a565b600085815260208120601f198616915b82811015620002b0578886015182559484019460019091019084016200028f565b5085821015620002cf5787850151600019600388901b60f8161c191681555b5050505050600190811b01905550565b611fbc80620002ef6000396000f3fe608060405234801561001057600080fd5b50600436106101735760003560e01c8063663b3e22116100de578063a22cb46511610097578063d33f116511610071578063d33f11651461035d578063d539139314610370578063d547741f14610397578063e985e9c5146103aa57600080fd5b8063a22cb46514610324578063b88d4fde14610337578063c87b56dd1461034a57600080fd5b8063663b3e22146102b85780636b55243d146102db57806370a08231146102ee57806391d148541461030157806395d89b4114610314578063a217fddf1461031c57600080fd5b80632f2ff15d116101305780632f2ff15d1461023957806336568abe1461024c5780633998b6fe1461025f5780633c433ebe1461027f57806342842e0e146102925780636352211e146102a557600080fd5b806301ffc9a71461017857806306fdde03146101a0578063081812fc146101b5578063095ea7b3146101e057806323b872dd146101f5578063248a9ca314610208575b600080fd5b61018b61018636600461177f565b6103e6565b60405190151581526020015b60405180910390f35b6101a86103f7565b60405161019791906117ec565b6101c86101c33660046117ff565b610489565b6040516001600160a01b039091168152602001610197565b6101f36101ee366004611834565b6104b0565b005b6101f361020336600461185e565b6105ca565b61022b6102163660046117ff565b60009081526006602052604090206001015490565b604051908152602001610197565b6101f361024736600461189a565b6105fb565b6101f361025a36600461189a565b610620565b61027261026d366004611972565b61069e565b60405161019791906119c0565b61018b61028d366004611972565b610724565b6101f36102a036600461185e565b610767565b6101c86102b33660046117ff565b610782565b6102cb6102c63660046117ff565b6107e2565b6040516101979493929190611a04565b61022b6102e9366004611a4a565b610928565b61022b6102fc366004611abe565b610aea565b61018b61030f36600461189a565b610b70565b6101a8610b9b565b61022b600081565b6101f3610332366004611ad9565b610baa565b6101f3610345366004611b15565b610bb5565b6101a86103583660046117ff565b610bed565b61022b61036b366004611b91565b610cf5565b61022b7f9f2df0fed2c77648de5860a4cc508cd0818c85b8b8a1ab4ceeef8d981c8956a681565b6101f36103a536600461189a565b610d3d565b61018b6103b8366004611bd8565b6001600160a01b03918216600090815260056020908152604080832093909416825291909152205460ff1690565b60006103f182610d62565b92915050565b60606000805461040690611c02565b80601f016020809104026020016040519081016040528092919081815260200182805461043290611c02565b801561047f5780601f106104545761010080835404028352916020019161047f565b820191906000526020600020905b81548152906001019060200180831161046257829003601f168201915b5050505050905090565b600061049482610d87565b506000908152600460205260409020546001600160a01b031690565b60006104bb82610782565b9050806001600160a01b0316836001600160a01b03160361052d5760405162461bcd60e51b815260206004820152602160248201527f4552433732313a20617070726f76616c20746f2063757272656e74206f776e656044820152603960f91b60648201526084015b60405180910390fd5b336001600160a01b0382161480610549575061054981336103b8565b6105bb5760405162461bcd60e51b815260206004820152603d60248201527f4552433732313a20617070726f76652063616c6c6572206973206e6f7420746f60448201527f6b656e206f776e6572206f7220617070726f76656420666f7220616c6c0000006064820152608401610524565b6105c58383610de9565b505050565b6105d43382610e57565b6105f05760405162461bcd60e51b815260040161052490611c3c565b6105c5838383610ed6565b6000828152600660205260409020600101546106168161103a565b6105c58383611044565b6001600160a01b03811633146106905760405162461bcd60e51b815260206004820152602f60248201527f416363657373436f6e74726f6c3a2063616e206f6e6c792072656e6f756e636560448201526e103937b632b9903337b91039b2b63360891b6064820152608401610524565b61069a82826110ca565b5050565b60606009826040516106b09190611c89565b9081526040805191829003602090810183206001600160a01b0387166000908152908252829020805480830285018301909352828452919083018282801561071757602002820191906000526020600020905b815481526020019060010190808311610703575b5050505050905092915050565b6000806009836040516107379190611c89565b908152604080519182900360209081019092206001600160a01b0387166000908152925290205411905092915050565b6105c583838360405180602001604052806000815250610bb5565b6000818152600260205260408120546001600160a01b0316806103f15760405162461bcd60e51b8152602060048201526018602482015277115490cdcc8c4e881a5b9d985b1a59081d1bdad95b88125160421b6044820152606401610524565b6008602052600090815260409020805481906107fd90611c02565b80601f016020809104026020016040519081016040528092919081815260200182805461082990611c02565b80156108765780601f1061084b57610100808354040283529160200191610876565b820191906000526020600020905b81548152906001019060200180831161085957829003601f168201915b505050506001830154600284015460038501805494956001600160a01b0390931694919350906108a590611c02565b80601f01602080910402602001604051908101604052809291908181526020018280546108d190611c02565b801561091e5780601f106108f35761010080835404028352916020019161091e565b820191906000526020600020905b81548152906001019060200180831161090157829003601f168201915b5050505050905084565b60007f9f2df0fed2c77648de5860a4cc508cd0818c85b8b8a1ab4ceeef8d981c8956a66109548161103a565b6001600160a01b0385166109aa5760405162461bcd60e51b815260206004820152601760248201527f496e76616c69642073747564656e7420616464726573730000000000000000006044820152606401610524565b6109b8600780546001019055565b60006109c360075490565b90506109cf8682611131565b604080516080810182528681526001600160a01b038816602080830191909152428284015260608201879052600084815260089091529190912081518190610a179082611cf3565b5060208201516001820180546001600160a01b0319166001600160a01b039092169190911790556040820151600282015560608201516003820190610a5c9082611cf3565b50905050600985604051610a709190611c89565b9081526040805191829003602090810183206001600160a01b038a1660008181529183529281208054600181018255908252919020018390559082907f3a8294eea84a809a4e4f058c92870183809c74c7e705132fcbdc5e2b0e51d9f190610ad99089906117ec565b60405180910390a395945050505050565b60006001600160a01b038216610b545760405162461bcd60e51b815260206004820152602960248201527f4552433732313a2061646472657373207a65726f206973206e6f7420612076616044820152683634b21037bbb732b960b91b6064820152608401610524565b506001600160a01b031660009081526003602052604090205490565b60009182526006602090815260408084206001600160a01b0393909316845291905290205460ff1690565b60606001805461040690611c02565b61069a33838361114b565b610bbf3383610e57565b610bdb5760405162461bcd60e51b815260040161052490611c3c565b610be784848484611219565b50505050565b6000818152600260205260409020546060906001600160a01b0316610c545760405162461bcd60e51b815260206004820152601a60248201527f436572746966696361746520646f6573206e6f742065786973740000000000006044820152606401610524565b60008281526008602052604090206003018054610c7090611c02565b80601f0160208091040260200160405190810160405280929190818152602001828054610c9c90611c02565b8015610ce95780601f10610cbe57610100808354040283529160200191610ce9565b820191906000526020600020905b815481529060010190602001808311610ccc57829003601f168201915b50505050509050919050565b8251602081850181018051600982529282018287012092905252600082815260409020805482908110610d2757600080fd5b9060005260206000200160009250925050505481565b600082815260066020526040902060010154610d588161103a565b6105c583836110ca565b60006001600160e01b03198216637965db0b60e01b14806103f157506103f18261124c565b6000818152600260205260409020546001600160a01b0316610de65760405162461bcd60e51b8152602060048201526018602482015277115490cdcc8c4e881a5b9d985b1a59081d1bdad95b88125160421b6044820152606401610524565b50565b600081815260046020526040902080546001600160a01b0319166001600160a01b0384169081179091558190610e1e82610782565b6001600160a01b03167f8c5be1e5ebec7d5bd14f71427d1e84f3dd0314c0f7b2291e5b200ac8c7c3b92560405160405180910390a45050565b600080610e6383610782565b9050806001600160a01b0316846001600160a01b03161480610eaa57506001600160a01b0380821660009081526005602090815260408083209388168352929052205460ff165b80610ece5750836001600160a01b0316610ec384610489565b6001600160a01b0316145b949350505050565b826001600160a01b0316610ee982610782565b6001600160a01b031614610f0f5760405162461bcd60e51b815260040161052490611db3565b6001600160a01b038216610f715760405162461bcd60e51b8152602060048201526024808201527f4552433732313a207472616e7366657220746f20746865207a65726f206164646044820152637265737360e01b6064820152608401610524565b826001600160a01b0316610f8482610782565b6001600160a01b031614610faa5760405162461bcd60e51b815260040161052490611db3565b600081815260046020908152604080832080546001600160a01b03199081169091556001600160a01b0387811680865260038552838620805460001901905590871680865283862080546001019055868652600290945282852080549092168417909155905184937fddf252ad1be2c89b69c2b068fc378daa952ba7f163c4a11628f55a4df523b3ef91a4505050565b610de6813361129c565b61104e8282610b70565b61069a5760008281526006602090815260408083206001600160a01b03851684529091529020805460ff191660011790556110863390565b6001600160a01b0316816001600160a01b0316837f2f8788117e7eff1d82e926ec794901d17c78024a50270940304540a733656f0d60405160405180910390a45050565b6110d48282610b70565b1561069a5760008281526006602090815260408083206001600160a01b0385168085529252808320805460ff1916905551339285917ff6391f5c32d9c69d2a47ea670b442974b53935d1edc7fd64eb21e047a839171b9190a45050565b61069a8282604051806020016040528060008152506112f5565b816001600160a01b0316836001600160a01b0316036111ac5760405162461bcd60e51b815260206004820152601960248201527f4552433732313a20617070726f766520746f2063616c6c6572000000000000006044820152606401610524565b6001600160a01b03838116600081815260056020908152604080832094871680845294825291829020805460ff191686151590811790915591519182527f17307eab39ab6107e8899845ad3d59bd9653f200f220920489ca2b5937696c31910160405180910390a3505050565b611224848484610ed6565b61123084848484611328565b610be75760405162461bcd60e51b815260040161052490611df8565b60006001600160e01b031982166380ac58cd60e01b148061127d57506001600160e01b03198216635b5e139f60e01b145b806103f157506301ffc9a760e01b6001600160e01b03198316146103f1565b6112a68282610b70565b61069a576112b381611429565b6112be83602061143b565b6040516020016112cf929190611e4a565b60408051601f198184030181529082905262461bcd60e51b8252610524916004016117ec565b6112ff83836115de565b61130c6000848484611328565b6105c55760405162461bcd60e51b815260040161052490611df8565b60006001600160a01b0384163b1561141e57604051630a85bd0160e11b81526001600160a01b0385169063150b7a029061136c903390899088908890600401611ebf565b6020604051808303816000875af19250505080156113a7575060408051601f3d908101601f191682019092526113a491810190611efc565b60015b611404573d8080156113d5576040519150601f19603f3d011682016040523d82523d6000602084013e6113da565b606091505b5080516000036113fc5760405162461bcd60e51b815260040161052490611df8565b805181602001fd5b6001600160e01b031916630a85bd0160e11b149050610ece565b506001949350505050565b60606103f16001600160a01b03831660145b6060600061144a836002611f2f565b611455906002611f46565b67ffffffffffffffff81111561146d5761146d6118c6565b6040519080825280601f01601f191660200182016040528015611497576020820181803683370190505b509050600360fc1b816000815181106114b2576114b2611f59565b60200101906001600160f81b031916908160001a905350600f60fb1b816001815181106114e1576114e1611f59565b60200101906001600160f81b031916908160001a9053506000611505846002611f2f565b611510906001611f46565b90505b6001811115611588576f181899199a1a9b1b9c1cb0b131b232b360811b85600f166010811061154457611544611f59565b1a60f81b82828151811061155a5761155a611f59565b60200101906001600160f81b031916908160001a90535060049490941c9361158181611f6f565b9050611513565b5083156115d75760405162461bcd60e51b815260206004820181905260248201527f537472696e67733a20686578206c656e67746820696e73756666696369656e746044820152606401610524565b9392505050565b6001600160a01b0382166116345760405162461bcd60e51b815260206004820181905260248201527f4552433732313a206d696e7420746f20746865207a65726f20616464726573736044820152606401610524565b6000818152600260205260409020546001600160a01b0316156116995760405162461bcd60e51b815260206004820152601c60248201527f4552433732313a20746f6b656e20616c7265616479206d696e746564000000006044820152606401610524565b6000818152600260205260409020546001600160a01b0316156116fe5760405162461bcd60e51b815260206004820152601c60248201527f4552433732313a20746f6b656e20616c7265616479206d696e746564000000006044820152606401610524565b6001600160a01b038216600081815260036020908152604080832080546001019055848352600290915280822080546001600160a01b0319168417905551839291907fddf252ad1be2c89b69c2b068fc378daa952ba7f163c4a11628f55a4df523b3ef908290a45050565b6001600160e01b031981168114610de657600080fd5b60006020828403121561179157600080fd5b81356115d781611769565b60005b838110156117b757818101518382015260200161179f565b50506000910152565b600081518084526117d881602086016020860161179c565b601f01601f19169290920160200192915050565b6020815260006115d760208301846117c0565b60006020828403121561181157600080fd5b5035919050565b80356001600160a01b038116811461182f57600080fd5b919050565b6000806040838503121561184757600080fd5b61185083611818565b946020939093013593505050565b60008060006060848603121561187357600080fd5b61187c84611818565b925061188a60208501611818565b9150604084013590509250925092565b600080604083850312156118ad57600080fd5b823591506118bd60208401611818565b90509250929050565b634e487b7160e01b600052604160045260246000fd5b600067ffffffffffffffff808411156118f7576118f76118c6565b604051601f8501601f19908116603f0116810190828211818310171561191f5761191f6118c6565b8160405280935085815286868601111561193857600080fd5b858560208301376000602087830101525050509392505050565b600082601f83011261196357600080fd5b6115d7838335602085016118dc565b6000806040838503121561198557600080fd5b61198e83611818565b9150602083013567ffffffffffffffff8111156119aa57600080fd5b6119b685828601611952565b9150509250929050565b6020808252825182820181905260009190848201906040850190845b818110156119f8578351835292840192918401916001016119dc565b50909695505050505050565b608081526000611a1760808301876117c0565b6001600160a01b0386166020840152604083018590528281036060840152611a3f81856117c0565b979650505050505050565b600080600060608486031215611a5f57600080fd5b611a6884611818565b9250602084013567ffffffffffffffff80821115611a8557600080fd5b611a9187838801611952565b93506040860135915080821115611aa757600080fd5b50611ab486828701611952565b9150509250925092565b600060208284031215611ad057600080fd5b6115d782611818565b60008060408385031215611aec57600080fd5b611af583611818565b915060208301358015158114611b0a57600080fd5b809150509250929050565b60008060008060808587031215611b2b57600080fd5b611b3485611818565b9350611b4260208601611818565b925060408501359150606085013567ffffffffffffffff811115611b6557600080fd5b8501601f81018713611b7657600080fd5b611b85878235602084016118dc565b91505092959194509250565b600080600060608486031215611ba657600080fd5b833567ffffffffffffffff811115611bbd57600080fd5b611bc986828701611952565b93505061188a60208501611818565b60008060408385031215611beb57600080fd5b611bf483611818565b91506118bd60208401611818565b600181811c90821680611c1657607f821691505b602082108103611c3657634e487b7160e01b600052602260045260246000fd5b50919050565b6020808252602d908201527f4552433732313a2063616c6c6572206973206e6f7420746f6b656e206f776e6560408201526c1c881bdc88185c1c1c9bdd9959609a1b606082015260800190565b60008251611c9b81846020870161179c565b9190910192915050565b601f8211156105c557600081815260208120601f850160051c81016020861015611ccc5750805b601f850160051c820191505b81811015611ceb57828155600101611cd8565b505050505050565b815167ffffffffffffffff811115611d0d57611d0d6118c6565b611d2181611d1b8454611c02565b84611ca5565b602080601f831160018114611d565760008415611d3e5750858301515b600019600386901b1c1916600185901b178555611ceb565b600085815260208120601f198616915b82811015611d8557888601518255948401946001909101908401611d66565b5085821015611da35787850151600019600388901b60f8161c191681555b5050505050600190811b01905550565b60208082526025908201527f4552433732313a207472616e736665722066726f6d20696e636f72726563742060408201526437bbb732b960d91b606082015260800190565b60208082526032908201527f4552433732313a207472616e7366657220746f206e6f6e20455243373231526560408201527131b2b4bb32b91034b6b83632b6b2b73a32b960711b606082015260800190565b7f416363657373436f6e74726f6c3a206163636f756e7420000000000000000000815260008351611e8281601785016020880161179c565b7001034b99036b4b9b9b4b733903937b6329607d1b6017918401918201528351611eb381602884016020880161179c565b01602801949350505050565b6001600160a01b0385811682528416602082015260408101839052608060608201819052600090611ef2908301846117c0565b9695505050505050565b600060208284031215611f0e57600080fd5b81516115d781611769565b634e487b7160e01b600052601160045260246000fd5b80820281158282048414176103f1576103f1611f19565b808201808211156103f1576103f1611f19565b634e487b7160e01b600052603260045260246000fd5b600081611f7e57611f7e611f19565b50600019019056fea26469706673582212202add54177a103e1da56ef2dd2bf83fb144174ad71217c5c530d605abd0312cc564736f6c63430008140033",
  "linkReferences": {},
  "deployedLinkReferences": {}
}