{
  "_format": "hh-sol-artifact-1",
  "contractName": "GeekToken",
  "sourceName": "contracts/GeekToken.sol",
  "abi": [
    {
      "inputs": [],
      "stateMutability": "nonpayable",
      "type": "constructor"
    },
    {
      "anonymous": false,
      "inputs": [
        {
          "indexed": true,
          "internalType": "address",
          "name": "owner",
          "type": "address"
        },
        {
          "indexed": true,
          "internalType": "address",
          "name": "spender",
          "type": "address"
        },
        {
          "indexed": false,
          "internalType": "uint256",
          "name": "value",
          "type": "uint256"
        }
      ],
      "name": "Approval",
      "type": "event"
    },
    {
      "anonymous": false,
      "inputs": [
        {
          "indexed": false,
          "internalType": "address",
          "name": "teamWallet",
          "type": "address"
        },
        {
          "indexed": false,
          "internalType": "address",
          "name": "marketingWallet",
          "type": "address"
        },
        {
          "indexed": false,
          "internalType": "address",
          "name": "communityWallet",
          "type": "address"
        }
      ],
      "name": "InitialDistributionCompleted",
      "type": "event"
    },
    {
      "anonymous": false,
      "inputs": [
        {
          "indexed": true,
          "internalType": "address",
          "name": "previousOwner",
          "type": "address"
        },
        {
          "indexed": true,
          "internalType": "address",
          "name": "newOwner",
          "type": "address"
        }
      ],
      "name": "OwnershipTransferred",
      "type": "event"
    },
    {
      "anonymous": false,
      "inputs": [
        {
          "indexed": true,
          "internalType": "address",
          "name": "buyer",
          "type": "address"
        },
        {
          "indexed": false,
          "internalType": "uint256",
          "name": "ethAmount",
          "type": "uint256"
        },
        {
          "indexed": false,
          "internalType": "uint256",
          "name": "tokenAmount",
          "type": "uint256"
        }
      ],
      "name": "TokensPurchased",
      "type": "event"
    },
    {
      "anonymous": false,
      "inputs": [
        {
          "indexed": true,
          "internalType": "address",
          "name": "seller",
          "type": "address"
        },
        {
          "indexed": false,
          "internalType": "uint256",
          "name": "tokenAmount",
          "type": "uint256"
        },
        {
          "indexed": false,
          "internalType": "uint256",
          "name": "ethAmount",
          "type": "uint256"
        }
      ],
      "name": "TokensSold",
      "type": "event"
    },
    {
      "anonymous": false,
      "inputs": [
        {
          "indexed": true,
          "internalType": "address",
          "name": "from",
          "type": "address"
        },
        {
          "indexed": true,
          "internalType": "address",
          "name": "to",
          "type": "address"
        },
        {
          "indexed": false,
          "internalType": "uint256",
          "name": "value",
          "type": "uint256"
        }
      ],
      "name": "Transfer",
      "type": "event"
    },
    {
      "stateMutability": "payable",
      "type": "fallback"
    },
    {
      "inputs": [],
      "name": "MAX_SUPPLY",
      "outputs": [
        {
          "internalType": "uint256",
          "name": "",
          "type": "uint256"
        }
      ],
      "stateMutability": "view",
      "type": "function"
    },
    {
      "inputs": [],
      "name": "TOKENS_PER_ETH",
      "outputs": [
        {
          "internalType": "uint256",
          "name": "",
          "type": "uint256"
        }
      ],
      "stateMutability": "view",
      "type": "function"
    },
    {
      "inputs": [
        {
          "internalType": "address",
          "name": "owner",
          "type": "address"
        },
        {
          "internalType": "address",
          "name": "spender",
          "type": "address"
        }
      ],
      "name": "allowance",
      "outputs": [
        {
          "internalType": "uint256",
          "name": "",
          "type": "uint256"
        }
      ],
      "stateMutability": "view",
      "type": "function"
    },
    {
      "inputs": [
        {
          "internalType": "address",
          "name": "spender",
          "type": "address"
        },
        {
          "internalType": "uint256",
          "name": "amount",
          "type": "uint256"
        }
      ],
      "name": "approve",
      "outputs": [
        {
          "internalType": "bool",
          "name": "",
          "type": "bool"
        }
      ],
      "stateMutability": "nonpayable",
      "type": "function"
    },
    {
      "inputs": [
        {
          "internalType": "address",
          "name": "account",
          "type": "address"
        }
      ],
      "name": "balanceOf",
      "outputs": [
        {
          "internalType": "uint256",
          "name": "",
          "type": "uint256"
        }
      ],
      "stateMutability": "view",
      "type": "function"
    },
    {
      "inputs": [],
      "name": "buyWithETH",
      "outputs": [],
      "stateMutability": "payable",
      "type": "function"
    },
    {
      "inputs": [],
      "name": "communityAllocation",
      "outputs": [
        {
          "internalType": "uint256",
          "name": "",
          "type": "uint256"
        }
      ],
      "stateMutability": "view",
      "type": "function"
    },
    {
      "inputs": [],
      "name": "decimals",
      "outputs": [
        {
          "internalType": "uint8",
          "name": "",
          "type": "uint8"
        }
      ],
      "stateMutability": "view",
      "type": "function"
    },
    {
      "inputs": [
        {
          "internalType": "address",
          "name": "spender",
          "type": "address"
        },
        {
          "internalType": "uint256",
          "name": "subtractedValue",
          "type": "uint256"
        }
      ],
      "name": "decreaseAllowance",
      "outputs": [
        {
          "internalType": "bool",
          "name": "",
          "type": "bool"
        }
      ],
      "stateMutability": "nonpayable",
      "type": "function"
    },
    {
      "inputs": [
        {
          "internalType": "address",
          "name": "teamWallet",
          "type": "address"
        },
        {
          "internalType": "address",
          "name": "marketingWallet",
          "type": "address"
        },
        {
          "internalType": "address",
          "name": "communityWallet",
          "type": "address"
        }
      ],
      "name": "distributeInitialTokens",
      "outputs": [],
      "stateMutability": "nonpayable",
      "type": "function"
    },
    {
      "inputs": [
        {
          "internalType": "address",
          "name": "spender",
          "type": "address"
        },
        {
          "internalType": "uint256",
          "name": "addedValue",
          "type": "uint256"
        }
      ],
      "name": "increaseAllowance",
      "outputs": [
        {
          "internalType": "bool",
          "name": "",
          "type": "bool"
        }
      ],
      "stateMutability": "nonpayable",
      "type": "function"
    },
    {
      "inputs": [],
      "name": "initialDistributionDone",
      "outputs": [
        {
          "internalType": "bool",
          "name": "",
          "type": "bool"
        }
      ],
      "stateMutability": "view",
      "type": "function"
    },
    {
      "inputs": [],
      "name": "marketingAllocation",
      "outputs": [
        {
          "internalType": "uint256",
          "name": "",
          "type": "uint256"
        }
      ],
      "stateMutability": "view",
      "type": "function"
    },
    {
      "inputs": [],
      "name": "name",
      "outputs": [
        {
          "internalType": "string",
          "name": "",
          "type": "string"
        }
      ],
      "stateMutability": "view",
      "type": "function"
    },
    {
      "inputs": [],
      "name": "owner",
      "outputs": [
        {
          "internalType": "address",
          "name": "",
          "type": "address"
        }
      ],
      "stateMutability": "view",
      "type": "function"
    },
    {
      "inputs": [],
      "name": "remainingMintableSupply",
      "outputs": [
        {
          "internalType": "uint256",
          "name": "",
          "type": "uint256"
        }
      ],
      "stateMutability": "view",
      "type": "function"
    },
    {
      "inputs": [],
      "name": "renounceOwnership",
      "outputs": [],
      "stateMutability": "nonpayable",
      "type": "function"
    },
    {
      "inputs": [
        {
          "internalType": "uint256",
          "name": "tokenAmount",
          "type": "uint256"
        }
      ],
      "name": "sellTokens",
      "outputs": [],
      "stateMutability": "nonpayable",
      "type": "function"
    },
    {
      "inputs": [],
      "name": "symbol",
      "outputs": [
        {
          "internalType": "string",
          "name": "",
          "type": "string"
        }
      ],
      "stateMutability": "view",
      "type": "function"
    },
    {
      "inputs": [],
      "name": "teamAllocation",
      "outputs": [
        {
          "internalType": "uint256",
          "name": "",
          "type": "uint256"
        }
      ],
      "stateMutability": "view",
      "type": "function"
    },
    {
      "inputs": [],
      "name": "totalSupply",
      "outputs": [
        {
          "internalType": "uint256",
          "name": "",
          "type": "uint256"
        }
      ],
      "stateMutability": "view",
      "type": "function"
    },
    {
      "inputs": [
        {
          "internalType": "address",
          "name": "to",
          "type": "address"
        },
        {
          "internalType": "uint256",
          "name": "amount",
          "type": "uint256"
        }
      ],
      "name": "transfer",
      "outputs": [
        {
          "internalType": "bool",
          "name": "",
          "type": "bool"
        }
      ],
      "stateMutability": "nonpayable",
      "type": "function"
    },
    {
      "inputs": [
        {
          "internalType": "address",
          "name": "from",
          "type": "address"
        },
        {
          "internalType": "address",
          "name": "to",
          "type": "address"
        },
        {
          "internalType": "uint256",
          "name": "amount",
          "type": "uint256"
        }
      ],
      "name": "transferFrom",
      "outputs": [
        {
          "internalType": "bool",
          "name": "",
          "type": "bool"
        }
      ],
      "stateMutability": "nonpayable",
      "type": "function"
    },
    {
      "inputs": [
        {
          "internalType": "address",
          "name": "newOwner",
          "type": "address"
        }
      ],
      "name": "transferOwnership",
      "outputs": [],
      "stateMutability": "nonpayable",
      "type": "function"
    },
    {
      "inputs": [],
      "name": "withdrawETH",
      "outputs": [],
      "stateMutability": "nonpayable",
      "type": "function"
    },
    {
      "stateMutability": "payable",
      "type": "receive"
    }
  ],
  "bytecode": "0x60806040523480156200001157600080fd5b506040518060400160405280600a81526020016923b2b2b5902a37b5b2b760b11b815250604051806040016040528060018152602001604760f81b8152508160039081620000609190620001f0565b5060046200006f8282620001f0565b5050506200008c62000086620000f560201b60201c565b620000f9565b60646200009e629c40006014620002bc565b620000aa9190620002e8565b6006556064620000bf629c4000600a620002bc565b620000cb9190620002e8565b6007556064620000e0629c4000600a620002bc565b620000ec9190620002e8565b6008556200030b565b3390565b600580546001600160a01b038381166001600160a01b0319831681179093556040519116919082907f8be0079c531659141344cd1fd0a4f28419497f9722a3daafe3b4186f6b6457e090600090a35050565b634e487b7160e01b600052604160045260246000fd5b600181811c908216806200017657607f821691505b6020821081036200019757634e487b7160e01b600052602260045260246000fd5b50919050565b601f821115620001eb57600081815260208120601f850160051c81016020861015620001c65750805b601f850160051c820191505b81811015620001e757828155600101620001d2565b5050505b505050565b81516001600160401b038111156200020c576200020c6200014b565b62000224816200021d845462000161565b846200019d565b602080601f8311600181146200025c5760008415620002435750858301515b600019600386901b1c1916600185901b178555620001e7565b600085815260208120601f198616915b828110156200028d578886015182559484019460019091019084016200026c565b5085821015620002ac5787850151600019600388901b60f8161c191681555b5050505050600190811b01905550565b8082028115828204841417620002e257634e487b7160e01b600052601160045260246000fd5b92915050565b6000826200030657634e487b7160e01b600052601260045260246000fd5b500490565b611309806200031b6000396000f3fe60806040526004361061015b5760003560e01c80636c11bcd3116100c8578063a9059cbb11610084578063dd62ed3e11610061578063dd62ed3e146103c8578063e086e5ec146103e8578063e492c5a9146103fd578063f2fde38b1461041d57005b8063a9059cbb1461037c578063bc6e66041461039c578063d53b4ab4146103b257005b80636c11bcd3146102b457806370a08231146102d4578063715018a61461030a5780638da5cb5b1461031f57806395d89b4114610347578063a457c2d71461035c57005b806323b872dd1161011757806323b872dd14610216578063313ce5671461023657806332cb6b0c14610252578063349f0b9014610269578063395093511461027e5780636816521a1461029e57005b80630535ec771461016457806306fdde0314610193578063095ea7b3146101b5578063150d283d146101d557806315f0c220146101dd57806318160ddd1461020157005b3661016257005b005b34801561017057600080fd5b5060095461017e9060ff1681565b60405190151581526020015b60405180910390f35b34801561019f57600080fd5b506101a861043d565b60405161018a91906110a3565b3480156101c157600080fd5b5061017e6101d036600461110d565b6104cf565b6101626104e9565b3480156101e957600080fd5b506101f360075481565b60405190815260200161018a565b34801561020d57600080fd5b506002546101f3565b34801561022257600080fd5b5061017e610231366004611137565b6105ff565b34801561024257600080fd5b506040516000815260200161018a565b34801561025e57600080fd5b506101f3629c400081565b34801561027557600080fd5b506101f3610623565b34801561028a57600080fd5b5061017e61029936600461110d565b610640565b3480156102aa57600080fd5b506101f360065481565b3480156102c057600080fd5b506101626102cf366004611173565b610662565b3480156102e057600080fd5b506101f36102ef36600461118c565b6001600160a01b031660009081526020819052604090205490565b34801561031657600080fd5b50610162610853565b34801561032b57600080fd5b506005546040516001600160a01b03909116815260200161018a565b34801561035357600080fd5b506101a8610867565b34801561036857600080fd5b5061017e61037736600461110d565b610876565b34801561038857600080fd5b5061017e61039736600461110d565b6108f1565b3480156103a857600080fd5b506101f36103e881565b3480156103be57600080fd5b506101f360085481565b3480156103d457600080fd5b506101f36103e33660046111ae565b6108ff565b3480156103f457600080fd5b5061016261092a565b34801561040957600080fd5b506101626104183660046111e1565b61096e565b34801561042957600080fd5b5061016261043836600461118c565b610a55565b60606003805461044c90611224565b80601f016020809104026020016040519081016040528092919081815260200182805461047890611224565b80156104c55780601f1061049a576101008083540402835291602001916104c5565b820191906000526020600020905b8154815290600101906020018083116104a857829003601f168201915b5050505050905090565b6000336104dd818585610acb565b60019150505b92915050565b6000341161052e5760405162461bcd60e51b815260206004820152600d60248201526c09aeae6e840e6cadcc8408aa89609b1b60448201526064015b60405180910390fd5b6000670de0b6b3a76400006105456103e834611274565b61054f919061128b565b9050629c40008161055f60025490565b61056991906112ad565b11156105b75760405162461bcd60e51b815260206004820152601760248201527f576f756c6420657863656564206d617820737570706c790000000000000000006044820152606401610525565b6105c13382610bf0565b604080513481526020810183905233917f8fafebcaf9d154343dad25669bfa277f4fbacd7ac6b0c4fed522580e040a0f33910160405180910390a250565b60003361060d858285610caf565b610618858585610d29565b506001949350505050565b600061062e60025490565b61063b90629c40006112c0565b905090565b6000336104dd81858561065383836108ff565b61065d91906112ad565b610acb565b600081116106b25760405162461bcd60e51b815260206004820152601d60248201527f416d6f756e74206d7573742062652067726561746572207468616e20300000006044820152606401610525565b336000908152602081905260409020548111156107085760405162461bcd60e51b8152602060048201526014602482015273496e73756666696369656e742062616c616e636560601b6044820152606401610525565b60006103e861071f83670de0b6b3a7640000611274565b610729919061128b565b90508047101561077b5760405162461bcd60e51b815260206004820152601c60248201527f496e73756666696369656e742045544820696e20636f6e7472616374000000006044820152606401610525565b6107853383610ecd565b604051600090339083908381818185875af1925050503d80600081146107c7576040519150601f19603f3d011682016040523d82523d6000602084013e6107cc565b606091505b50509050806108135760405162461bcd60e51b8152602060048201526013602482015272115512081d1c985b9cd9995c8819985a5b1959606a1b6044820152606401610525565b604080518481526020810184905233917f2dcf9433d75db0d8b1c172641f85e319ffe4ad22e108a95d1847ceb906e5195d910160405180910390a2505050565b61085b610ff7565b6108656000611051565b565b60606004805461044c90611224565b6000338161088482866108ff565b9050838110156108e45760405162461bcd60e51b815260206004820152602560248201527f45524332303a2064656372656173656420616c6c6f77616e63652062656c6f77604482015264207a65726f60d81b6064820152608401610525565b6106188286868403610acb565b6000336104dd818585610d29565b6001600160a01b03918216600090815260016020908152604080832093909416825291909152205490565b610932610ff7565b6005546040516001600160a01b03909116904780156108fc02916000818181858888f1935050505015801561096b573d6000803e3d6000fd5b50565b610976610ff7565b60095460ff16156109d35760405162461bcd60e51b815260206004820152602160248201527f496e697469616c20646973747269627574696f6e20616c726561647920646f6e6044820152606560f81b6064820152608401610525565b6109df83600654610bf0565b6109eb82600754610bf0565b6109f781600854610bf0565b6009805460ff19166001179055604080516001600160a01b038581168252848116602083015283168183015290517f4864f7df2cd1c07972b3dbf1a98de81ddd7d784caf0078d5e5e372b219f6695c916060908290030190a1505050565b610a5d610ff7565b6001600160a01b038116610ac25760405162461bcd60e51b815260206004820152602660248201527f4f776e61626c653a206e6577206f776e657220697320746865207a65726f206160448201526564647265737360d01b6064820152608401610525565b61096b81611051565b6001600160a01b038316610b2d5760405162461bcd60e51b8152602060048201526024808201527f45524332303a20617070726f76652066726f6d20746865207a65726f206164646044820152637265737360e01b6064820152608401610525565b6001600160a01b038216610b8e5760405162461bcd60e51b815260206004820152602260248201527f45524332303a20617070726f766520746f20746865207a65726f206164647265604482015261737360f01b6064820152608401610525565b6001600160a01b0383811660008181526001602090815260408083209487168084529482529182902085905590518481527f8c5be1e5ebec7d5bd14f71427d1e84f3dd0314c0f7b2291e5b200ac8c7c3b92591015b60405180910390a3505050565b6001600160a01b038216610c465760405162461bcd60e51b815260206004820152601f60248201527f45524332303a206d696e7420746f20746865207a65726f2061646472657373006044820152606401610525565b8060026000828254610c5891906112ad565b90915550506001600160a01b038216600081815260208181526040808320805486019055518481527fddf252ad1be2c89b69c2b068fc378daa952ba7f163c4a11628f55a4df523b3ef910160405180910390a35050565b6000610cbb84846108ff565b90506000198114610d235781811015610d165760405162461bcd60e51b815260206004820152601d60248201527f45524332303a20696e73756666696369656e7420616c6c6f77616e63650000006044820152606401610525565b610d238484848403610acb565b50505050565b6001600160a01b038316610d8d5760405162461bcd60e51b815260206004820152602560248201527f45524332303a207472616e736665722066726f6d20746865207a65726f206164604482015264647265737360d81b6064820152608401610525565b6001600160a01b038216610def5760405162461bcd60e51b815260206004820152602360248201527f45524332303a207472616e7366657220746f20746865207a65726f206164647260448201526265737360e81b6064820152608401610525565b6001600160a01b03831660009081526020819052604090205481811015610e675760405162461bcd60e51b815260206004820152602660248201527f45524332303a207472616e7366657220616d6f756e7420657863656564732062604482015265616c616e636560d01b6064820152608401610525565b6001600160a01b03848116600081815260208181526040808320878703905593871680835291849020805487019055925185815290927fddf252ad1be2c89b69c2b068fc378daa952ba7f163c4a11628f55a4df523b3ef910160405180910390a3610d23565b6001600160a01b038216610f2d5760405162461bcd60e51b815260206004820152602160248201527f45524332303a206275726e2066726f6d20746865207a65726f206164647265736044820152607360f81b6064820152608401610525565b6001600160a01b03821660009081526020819052604090205481811015610fa15760405162461bcd60e51b815260206004820152602260248201527f45524332303a206275726e20616d6f756e7420657863656564732062616c616e604482015261636560f01b6064820152608401610525565b6001600160a01b0383166000818152602081815260408083208686039055600280548790039055518581529192917fddf252ad1be2c89b69c2b068fc378daa952ba7f163c4a11628f55a4df523b3ef9101610be3565b6005546001600160a01b031633146108655760405162461bcd60e51b815260206004820181905260248201527f4f776e61626c653a2063616c6c6572206973206e6f7420746865206f776e65726044820152606401610525565b600580546001600160a01b038381166001600160a01b0319831681179093556040519116919082907f8be0079c531659141344cd1fd0a4f28419497f9722a3daafe3b4186f6b6457e090600090a35050565b600060208083528351808285015260005b818110156110d0578581018301518582016040015282016110b4565b506000604082860101526040601f19601f8301168501019250505092915050565b80356001600160a01b038116811461110857600080fd5b919050565b6000806040838503121561112057600080fd5b611129836110f1565b946020939093013593505050565b60008060006060848603121561114c57600080fd5b611155846110f1565b9250611163602085016110f1565b9150604084013590509250925092565b60006020828403121561118557600080fd5b5035919050565b60006020828403121561119e57600080fd5b6111a7826110f1565b9392505050565b600080604083850312156111c157600080fd5b6111ca836110f1565b91506111d8602084016110f1565b90509250929050565b6000806000606084860312156111f657600080fd5b6111ff846110f1565b925061120d602085016110f1565b915061121b604085016110f1565b90509250925092565b600181811c9082168061123857607f821691505b60208210810361125857634e487b7160e01b600052602260045260246000fd5b50919050565b634e487b7160e01b600052601160045260246000fd5b80820281158282048414176104e3576104e361125e565b6000826112a857634e487b7160e01b600052601260045260246000fd5b500490565b808201808211156104e3576104e361125e565b818103818111156104e3576104e361125e56fea26469706673582212204625046cc8b9e483a66c4c51933eaf012f309020a21542c37227d44c64eec96b64736f6c63430008140033",
  "linkReferences": {},
  "deployedLinkReferences": {}
}